:1000000000000420F9020000210300002303000087
:100010002503000027030000290300000000000062
:100020000000000000000000000000002B030000A2
:100030002D030000000000002F030000310300002A
:100040004D09000033030000B51800003303000021
:100050003303000033030000B11500003303000038
:1000600033030000330300003303000033030000B8
:1000700033030000330300003303000033030000A8
:100080003303000033030000330300003303000098
:100090003303000033030000091A0000330300009B
:1000A0003303000033030000330300003303000078
:1000B00033030000330300000000000000000000D4
:1000C0003303000033030000330300003303000058
:1000D0003303000033030000330300003303000048
:1000E000330300003303000033030000000000006E
:1000F0000000000033030000000000003303000094
:1001000000000000000000000000000000000000EF
:1001100000000000000000000000000000000000DF
:1001200000000000000000000000000000000000CF
:1001300000000000000000000000000000000000BF
:1001400000000000000000000000000000000000AF
:10015000000000000000000000000000000000009F
:10016000000000000000000000000000000000008F
:10017000000000000000000000000000000000007F
:10018000000000000000000000000000000000006F
:10019000000000000000000000000000000000005F
:1001A000000000000000000000000000000000004F
:1001B000000000000000000000000000000000003F
:1001C000000000000000000000000000000000002F
:1001D000000000000000000000000000000000001F
:1001E000000000000000000000000000000000000F
:1001F00000000000000000000000000000000000FF
:100200000348044B834202D0034B03B118477047A5
:10021000BC400020BC40002000000000054806490A
:100220000B1AD90F01EBA301491002D0034B03B104
:1002300018477047BC400020BC4000200000000070
:1002400010B5064C237843B9FFF7DAFF044B13B11E
:100250000448AFF300800123237010BDBC40002090
:10026000000000009057000008B5044B1BB1044982
:100270000448AFF30080BDE80840CFE7000000006D
:10028000C040002090570000A3F5803A704700BF9F
:10029000154B002B08BF114B9D46FFF7F5FF0021C2
:1002A0008B460F461148124A121A04F087FF0C4B76
:1002B000002B00D098470B4B002B00D09847002014
:1002C000002104000D000B4804F086FE04F0B8FE87
:1002D0002000290004F04DFE04F084FE0000080018
:1002E000000000000000000000000420BC400020CE
:1002F000A44700200D5000000649074A074B9B1AEF
:1003000003DD043BC858D050FBDC00F061FBFFF775
:10031000BFFF000020580000F83F0020BC40002034
:10032000FEE7FEE7FEE7FEE7FEE7FEE7FEE7FEE7A5
:10033000FEE7FEE780B483B000AF0346FB71FB79B4
:1003400003F01F02074997F907305B09012000FA03
:1003500002F2203341F8232000BF0C37BD465DF880
:10036000047B704700E100E080B500AF00F0DFFAE9
:10037000024B00229A7000BF80BD00BFD840002011
:1003800080B582B000AF00237B60144B1B78002B3C
:1003900002D085237B601CE0104B00229A600F4B3B
:1003A00000225A600D4B00221A610C4B0022DA60C9
:1003B0000B4800F085FA786001F0F2FA034683F00A
:1003C0000103DBB2002B01D000F09AFA034B0122AB
:1003D0001A707B6818460837BD4680BDD84000209B
:1003E0006105000080B485B000AF786039607B683B
:1003F0001B68FB6006E0FA683B689A420DD0FB6818
:100400001B68FB60FB68002BF5D17B681A683B68B2
:100410001A607B683A681A6000E000BF1437BD4676
:100420005DF8047B704780B485B000AF78607B686E
:100430001B68FB60FB68002B03D0FB681A687B68B5
:100440001A60FB6818461437BD465DF8047B704798
:1004500080B584B000AF78601E4B9B78DBB2002B78
:1004600017D07B68002B03D07B685B68012098471E
:100470000023FB7307F10F03184600F0E7FC154B50
:10048000DB680133134AD360FB7B184600F0E9FCBC
:100490001CE00023BB7307F10E03184600F0D6FCE6
:1004A0007B68002B03D079680B48FFF79BFF094B53
:1004B000DB68002B01D100F02CFA064BDB6801331E
:1004C000044AD360BB7B184600F0CBFC00BF10375A
:1004D000BD4680BDD8400020E840002080B582B0F5
:1004E00000AF0023FB71FB1D184600F0AFFC094B69
:1004F000DB68013B074AD360064BDB68002B01D168
:10050000FFF732FFFB79184600F0ABFC00BF08375D
:10051000BD4680BDD840002080B584B000AF034602
:10052000FB71FB79002B02D10B4BFB6001E00B4B05
:10053000FB60F868FFF777FFB860BB68002B05D059
:10054000BB685B68FA7910469847F2E700BF00BFC6
:100550001037BD4680BD00BFE0400020E8400020CD
:1005600080B582B000AF0346FB71FB79002B05D14B
:10057000094B01225A700020FFF7CEFFFB79012BB7
:1005800005D1054B01229A700120FFF7C5FF00BF7E
:100590000837BD4680BD00BFD840002080B582B07E
:1005A00000AF786039607B68002B05D1044B0122D5
:1005B0005A700020FFF7B0FF00BF0837BD4680BD6E
:1005C000D840002080B584B000AF03463960FB718D
:1005D000FB79032B27D0032B2ADC002B02D0012B25
:1005E00004D025E00020FFF7A5FE22E00023FB73E6
:1005F00007F10F03184600F029FC104B1B7883F01D
:100600000103DBB2002B01D0FFF7BAFE0B4BDB6816
:1006100001330A4AD360094B01229A70FB7B1846CA
:1006200000F01FFC05E000F06BF9FFF757FF00E05A
:1006300000BF00BF1037BD4680BD00BFD8400020BE
:1006400080B483B000AF0346FB71FB7903F01F0257
:10065000074997F907305B09012000FA02F241F8D7
:10066000232000BF0C37BD465DF8047B704700BFF8
:1006700000E100E080B483B000AF03463960FB7155
:1006800097F90730002B0BDA3B68DAB20C49FB799B
:1006900003F00F03043B5201D2B20B441A7609E077
:1006A0003B68DAB2074997F907305201D2B20B44DE
:1006B00083F8002300BF0C37BD465DF8047B70470C
:1006C00000ED00E000E100E080B483B000AF7860AE
:1006D0007B681B0B5BB218460C37BD465DF8047B8C
:1006E000704780B582B000AF03460A46FB711346DF
:1006F000BB71BA7997F9073011461846FFF7BAFF70
:1007000000BF0837BD4680BD80B582B000AF03464C
:10071000FB7197F907301846FFF792FF00BF0837C3
:10072000BD4680BD80B483B000AF0346FB71114A63
:1007300097F90730002B00DA1F335B115BB252F8D8
:10074000232097F90730594203F01F0301F01F01DE
:1007500058BF4B425BB222FA03F303F00103002BB4
:1007600014BF01230023DBB218460C37BD465DF8E9
:10077000047B704700E100E080B483B000AF786094
:100780004FF080427B68C2F8043300BF0C37BD468F
:100790005DF8047B704780B483B000AF78604FF0A1
:1007A00080427B68C2F8083300BF0C37BD465DF855
:1007B000047B704780B483B000AF0346FB71FB79C4
:1007C00003F1804301221A6000BF0C37BD465DF87B
:1007D000047B704780B485B000AF0346FB80FB8884
:1007E00003F1804300221A60FB8803F180431B68F9
:1007F000FB60FB6800BF1437BD465DF8047B7047A3
:1008000080B483B000AF0346FB80FB8803F18043D4
:100810001B68002B14BF01230023DBB218460C37E2
:10082000BD465DF8047B704780B483B000AF78604C
:100830004FF080427B68C2F8183500BF0C37BD46C8
:100840005DF8047B704780B400AF4FF08043D3F86D
:1008500018341B0C03F00103002B14BF01230023E9
:10086000DBB21846BD465DF8047B704780B582B0A8
:1008700000AF0623FB714FF08040FFF725FF0346D2
:100880001846FFF74FFF034683F00103DBB2002B4E
:1008900012D04FF08040FFF717FF03461A46FB794E
:1008A00019461046FFF71DFF4FF08040FFF70CFF81
:1008B00003461846FFF728FF00BF0837BD4680BD36
:1008C00080B485B000AF78600023FB600B4B1B79D0
:1008D000002B02D08523FB6008E0084A7B68136088
:1008E000064B01221A71054B00225A71FB6818460B
:1008F0001437BD465DF8047B704700BFEC40002014
:1009000080B500AFFFF7B2FF0120FFF78DFF00BFFA
:1009100080BD80B500AF4FF48270FFF75BFF02200F
:10092000FFF72AFF0820FFF745FF00BF80BD80B515
:1009300000AF0C20FFF73EFF00BFFFF784FF034628
:10094000002BFAD100BF00BF80BD000080B500AF12
:100950004FF48070FFF754FF0346002B14D04FF480
:100960008070FFF737FF0120FFF715FF104B5B7911
:1009700083F00103DBB2002B06D00D4B01225A712C
:100980000B4B1B68002098474FF48270FFF738FF2D
:100990000346002B0AD04FF48270FFF71BFF0220A2
:1009A000FFF7F9FE024B1B680120984700BF80BD8E
:1009B000EC40002080B400AF034B044A1A6000BF33
:1009C000BD465DF8047B7047F83F00200090D003DF
:1009D00080B500AF00F0EEF80346002B0ED04FF0CC
:1009E00080430022C3F80C214FF080430022C3F85B
:1009F00010214FF080430022C3F8382500F002F99F
:100A00000346002B76D04FF08053624AD3F804346B
:100A1000C2F820354FF080535E4AD3F80834C2F84C
:100A200024354FF080535B4AD3F80C34C2F8283594
:100A30004FF08053574AD3F81034C2F82C354FF09A
:100A40008053544AD3F81434C2F830354FF08053F1
:100A5000504AD3F81834C2F834354FF080534D4A19
:100A6000D3F81C34C2F840354FF08053494AD3F8CC
:100A70002034C2F844354FF08053464AD3F824342A
:100A8000C2F848354FF08053424AD3F82834C2F8B0
:100A90004C354FF080533F4AD3F82C34C2F85035D0
:100AA0004FF080533B4AD3F83034C2F854354FF0FE
:100AB0008053384AD3F83434C2F860354FF080534D
:100AC000344AD3F83834C2F864354FF08053314A91
:100AD000D3F83C34C2F868354FF080532D4AD3F830
:100AE0004034C2F86C354FF080532A4AD3F844346E
:100AF000C2F8703500F0AEF80346002B02D0264B4A
:100B0000264A1A6000F0BCF80346002B03D0244BA1
:100B1000FB22C3F8182500F0C9F80346002B0AD0C1
:100B2000204B1B6823F00F021F4B1B6803F00F03C1
:100B30001C4913430B6000F0CFF80346002B03D091
:100B40001A4B4FF400721A6000F0DCF80346002BD9
:100B50000DD04FF08043D3F8003403F00103002B95
:100B600005D04FF080436FF00102C3F80024104B12
:100B7000D3F888300E4A43F47003C2F88830BFF3CC
:100B80004F8F00BFBFF36F8F00BFFFF713FF00BF92
:100B900080BD00BF00C000408C560040488103006B
:100BA00000F00040E40E0040580200104096024061
:100BB00000ED00E080B400AF104B1B68082B17D18C
:100BC0000F4B1B68002B01D1012312E00C4B1B685B
:100BD000012B01D101230CE0094B1B68022B01D131
:100BE000012306E0064B1B68032B01D1012300E023
:100BF00001231846BD465DF8047B704730010010A4
:100C00003401001080B400AF104B1B68082B17D1C3
:100C10000F4B1B68002B01D1012312E00C4B1B680A
:100C2000012B01D101230CE0094B1B68022B01D1E0
:100C3000012306E0064B1B68032B01D1012300E0D2
:100C400001231846BD465DF8047B70473001001053
:100C50003401001080B400AF074B1B68082B05D18E
:100C6000064B1B68002B01D1012300E0002318462E
:100C7000BD465DF8047B7047300100103401001060
:100C800080B400AF074B1B68082B05D1064B1B68CF
:100C9000002B01D1012300E000231846BD465DF87A
:100CA000047B7047300100103401001080B400AFA5
:100CB000074B1B68082B05D1064B1B68002B01D185
:100CC000012300E000231846BD465DF8047B704711
:100CD000300100103401001080B400AF074B1B68D6
:100CE000082B05D1064B1B68002B01D1012300E026
:100CF00000231846BD465DF8047B704730010010A4
:100D00003401001080B400AF104B1B68082B17D1C2
:100D10000F4B1B68002B01D1012312E00C4B1B6809
:100D2000012B01D101230CE0094B1B68022B01D1DF
:100D3000012306E0064B1B68032B01D1012300E0D1
:100D400001231846BD465DF8047B70473001001052
:100D50003401001080B483B000AFEFF310833B6028
:100D60003B687B6072B600BF7B6818460C37BD4697
:100D70005DF8047B704780B400AF62B600BF00BF6F
:100D8000BD465DF8047B704780B584B000AF7860E5
:100D9000FFF7E0FFF860164B9B68002B1BD1144B4C
:100DA00001229A60134BD3F88020134B1340104A52
:100DB0001360104B104AC3F880200E4BD3F88430D8
:100DC0000B4A53600B4B4FF0FF32C3F884207B6813
:100DD00000221A7002E07B6801221A70FB68002B67
:100DE00001D1FFF7C8FF002318461037BD4680BD6C
:100DF0009447002000E100E0FC06FFBD80B584B010
:100E000000AF0346FB710F4B9B68002B15D0FB799D
:100E1000002B12D1FFF79EFFF8600B4A094B1B68AD
:100E20001360094A074B5B685360064B00229A60C7
:100E3000FB68002B01D1FFF79EFF002318461037F7
:100E4000BD4680BD9447002000E100E080B582B03F
:100E500000AF78607868FFF797FF00BF0837BD469E
:100E600080BD80B582B000AF0346FB71FB791846A8
:100E7000FFF7C4FF00BF0837BD4680BD80B58AB00C
:100E800000AF786039607B681B8A043BFB613A687D
:100E9000FB691344DA1CFB69B2FBF3F3FB76786859
:100EA00002F0B2FA78617B69002B01D1002337E0B0
:100EB0007B6900221A717B6901225A71FB699AB21F
:100EC0007B69DA807B697B62FB7E013B3B617B6AED
:100ED0007A681A6000233B621DE0786802F094FA99
:100EE000F860FB68002B0ED07B695B790133DAB2C6
:100EF0007B695A717B6AFA681A60FB687A681A60C3
:100F0000FB687B6204E0786900F00EF8002307E0DC
:100F10003B6A01333B623A6A3B699A42DDD37B69A3
:100F200018462837BD4680BD80B58AB000AF7860CE
:100F30007B68FB61FB695B79FB767B683B62FB7ED0
:100F4000013B7B6100237B6205E03B6A1B683B62DF
:100F50007B6A01337B627A6A7B699A42F5D33B6A8A
:100F60001B683B617B683B6200237B620BE03B6A52
:100F70001B68FB60396A386902F080FAFB683B62E3
:100F80007B6A01337B62FB7E7A6A9A42EFD300BFB1
:100F900000BF2837BD4680BD80B584B000AF786003
:100FA0007B68FB60FB6804330121184602F0B8F946
:100FB00000BF1037BD4680BD80B586B000AF7860F9
:100FC0007B687B617B6904330121184602F0C1F91B
:100FD0000346FB6007F10C033B613B691B78002B68
:100FE00002D17868FFF7A0FF00BF1837BD4680BD6B
:100FF00080B590B000AFF860B9607A603B60FB6884
:101000007B62FB68FB637B6ADB881A467B6A5B79E1
:1010100003FB02F3043B3B627B6ADB88FB613B68BA
:101020001A1DFB69B2FBF3F3BB633B680433FA6937
:10103000B3FBF2F2F96901FB02F29B1A7B637B6856
:101040001A683B6813443A6A9A4203D23A6A3B6888
:10105000D31A01E07B681B683B637B683A6B1A60BC
:1010600005E0FB6B1B68FB63BB6B013BBB63BB6BAE
:10107000002BF6D10023FB62FA697B6BD31ABB62AB
:10108000BA6A3B6B934228BF1346BB622AE0BA6838
:10109000FB6A1344BB61FA6B7B6B134404337B61C3
:1010A00097F84830002B05D0BA6A7969B86903F01F
:1010B000EBFF04E0BA6AB969786903F0E5FF002341
:1010C0007B63FB6B1B68FB633A6BBB6AD31A3B63A6
:1010D000FA6ABB6A1344FB62FA693B6B934228BF0E
:1010E0001346BB623B6B002BD1D100BF00BF403722
:1010F000BD4680BD80B588B002AFF860B9607A6047
:101100003B607B687B6107F11402002300933B681E
:10111000B968F868FFF76CFF00BF1837BD4680BD9F
:1011200080B588B002AFF860B9607A603B607B68D8
:101130007B6107F11402012300933B68B968F868EA
:10114000FFF756FF00BF1837BD4680BD80B588B099
:1011500000AF786039603B68FB617B681B783B734C
:101160007B685B683B617B689B68DBB23B757B6837
:10117000DB68BB61074AFB6952F823300649FA690C
:1011800051F8221007F10C021046984700BF203793
:10119000BD4680BDF4400020FC40002080B588B0F2
:1011A00000AF786039603B68FB617B681B783B73FC
:1011B0007B685B683B617B689B68DBB23B757B68E7
:1011C000DB68BB61074AFB6952F823300649FA69BC
:1011D00051F8221007F10C021046984700BF203743
:1011E000BD4680BDF4400020FC400020B0B58EB06C
:1011F00000AFF860B9607A60FB681B783B632949EF
:101200003B6B7A6841F82320BB681A6926493B6B1F
:1012100041F82320BB685B7F1946244A3B6B13448B
:101220000A461A70BB6807F110041D460FCD0FC4A3
:1012300095E80F0084E80F003B6B3B6200237B6363
:10124000FB681B781A46194B9B5C002B0ED0FB6881
:10125000181D7B68002B01D0154A00E0002207F121
:101260001003194603F03CFB786315E0FB681B781C
:101270001A460E4B9B5C002B0ED1FB6803F10C0051
:101280007B68002B01D00B4A00E0002207F110031D
:10129000194602F0A5FC78637B6B18463837BD46CB
:1012A000B0BD00BFF4400020FC400020A04700205B
:1012B0004D1100009D11000080B582B000AF0346C3
:1012C000FB80FB88184600F024F803461B68012BBE
:1012D0000CBF01230023DBB218460837BD4680BD92
:1012E00080B584B000AF0346FB80FB88184600F051
:1012F00010F803461A4600231360FB88184600F0D6
:1013000008F803461B68FB60FB6800BF1037BD464A
:1013100080BD80B483B000AF0346FB80FB8803F13F
:10132000804303F5C04318460C37BD465DF8047B87
:101330007047000080B483B000AF7860054BD3F8ED
:1013400004237B68134018460C37BD465DF8047BC8
:10135000704700BF0060004080B483B000AF786089
:10136000074A7B6803F5A27352F823301B0A03F087
:101370003F0318460C37BD465DF8047B704700BF3D
:101380000060004080B483B000AF7860074A7B689B
:1013900003F5A27352F823301B0C03F00303DBB2F6
:1013A00018460C37BD465DF8047B7047006000406E
:1013B00080B483B000AF78607B681B681F2B02D8B5
:1013C0004FF0A04306E07B681B6803F01F027B68B8
:1013D0001A60034B18460C37BD465DF8047B704716
:1013E0000003005080B584B000AF78600B46FB70FE
:1013F0003B1D1846FFF7DCFFF8607A68FB6802F5D2
:10140000E07253F822307A6823F44031FB6802F529
:10141000E07243F822107A68FB6802F5E07253F834
:101420002230FA78120411467A681943FB6802F5F3
:10143000E07243F8221000BF1037BD4680BD80B572
:1014400084B000AF78603B1D1846FFF7B1FFF8602D
:101450007A68FB6802F5E07253F822301B0C03F047
:101460000303DBB218461037BD4680BD80B483B09D
:1014700000AF78607B68D3F8103518460C37BD464E
:101480005DF8047B7047000080B588B000AFF8605D
:10149000B9607A60134A07F1140392E8030083E805
:1014A0000300FB68FB6112E0FB699B0007F120026F
:1014B000134453F80C3C1846FFF7D8FF02467B68EC
:1014C0001A607B6804337B60FB690133FB61FA6857
:1014D000BB681344FA699A42E6D300BF00BF2037C5
:1014E000BD4680BDE054000080B485B000AF786098
:1014F00039603B68FB607B68DB08BB607B6803F09E
:1015000007037B6001227B6802FA03F3F968BA687B
:101510000A441278134018461437BD465DF8047B20
:10152000704780B485B000AF786039603B68FB607D
:101530007B68DB08BB607B6803F007037B60FA68AD
:10154000BB6813441B785AB201217B6801FA03F38C
:101550005BB2134359B2FA68BB681344CAB21A703B
:1015600000BF1437BD465DF8047B704780B483B07C
:1015700000AF7860054A7B681344303393F900303C
:1015800018460C37BD465DF8047B704704410020C7
:1015900080B483B000AF7860044A7B6852F823308F
:1015A00018460C37BD465DF8047B704704410020A7
:1015B00080B598B000AF00233B6507F11803002207
:1015C0001A605A604FF48073A7F84A300123BB6554
:1015D0000023FB6421E0B7F84A301846FFF76CFEA1
:1015E0000346002B0ED0B86DFFF7A4FE0346002B78
:1015F00008D0B7F84A301846FFF772FE3A6DBB6D57
:1016000013433B65BB6D5B00BB65B7F84A300433E1
:10161000A7F84A30FB6C0133FB64FB6C072BDAD96B
:101620004FF4BE70FFF748FE0346002B0ED04FF478
:10163000BE70FFF755FE3B6D43F000433B6507F17D
:1016400018031A4602210020FFF71EFF3B6DDBB294
:10165000002B29D00123BB650023FB6421E0BA6D78
:101660003B6D1340002B16D0F86CFFF775FE7864C5
:10167000F86CFFF787FE034687F84330F86CFFF7F6
:1016800087FFF863FB6B002B05D097F84320FB6BBB
:101690001146786C9847BB6D5B00BB65FB6C0133F2
:1016A000FB64FB6C072BDAD93B6D002B80F2FB80CF
:1016B000002387F85F3007F1100300221A605A6098
:1016C00000237B650BE07B6D9B0007F160021344F8
:1016D0004FF0FF3243F8582C7B6D01337B657B6DF7
:1016E000012BF0D9002387F85F300023FB647BE0F7
:1016F0006F4AFB6C1344603393F9003087F83B303A
:1017000097F83B3023F0C0037B63694AFB6C1344BA
:10171000603393F90030B3F1FF3F62D007F1080363
:101720001946786BFFF7E0FE0346002B59D097F877
:101730003B309B0987F83330786BFFF717FF034680
:101740001846FFF725FFF862FB6A002B03D197F8D4
:101750003330032B45D197F83330032B05D107F1F4
:1017600010031946786BFFF7DCFE786BFFF767FE16
:10177000034687F82B3007F118031946786BFFF7FB
:10178000B3FE78627B6A002B03D097F82B30022BD4
:1017900006D07B6A002B24D197F82B30032B20D165
:1017A00097F83330032B13D197F82B30022B01D14C
:1017B000032300E0022387F8233097F823301946EB
:1017C000786BFFF70FFE97F85F30013387F85F30D3
:1017D000FB6A002B05D097F83320FB6A1146786B23
:1017E0009847FB6C0133FB64FB6C032B80D997F8A3
:1017F0005F30002B52D0012387F85E303B461A46FB
:1018000002210020FFF740FE00237B6516E07B6D80
:101810009B0007F16002134453F8602C7B6D9B0022
:1018200007F160010B4453F8483C9A4203D000236F
:1018300087F85E3005E07B6D01337B657B6D012BA6
:10184000E5D997F85E30002B03D0002387F85F308E
:1018500024E000237B651EE07B6D9B0007F16002A6
:10186000134453F8602C7B6D9B0007F160010B441F
:1018700043F8482C7B6D9B0007F16002134453F83A
:10188000502C7B6D9B0007F160010B4443F8582CF2
:101890007B6D01337B657B6D012BDDD997F85F3064
:1018A000002B7FF41FAF00BF6037BD4680BD00BF77
:1018B0000441002080B500AF024B1B68984700BF71
:1018C00080BD00BF7041002080B483B000AF78605D
:1018D0007B68064A934201D1054B00E0002318467D
:1018E0000C37BD465DF8047B704700BF0020004008
:1018F0007041002080B586B000AF786039607868AC
:10190000FFF7E2FF38613B69002B20D00023FB7515
:101910000023FB7207F10B031846FFF797FA3B69A8
:101920001B79002B02D00123FB7505E03B693A6867
:101930001A603B6901221A71FB7A1846FFF791FA87
:10194000FB7D002B03D01123FB60FB6802E000232A
:10195000FB60FB6818461837BD4680BD80B584B073
:1019600000AF78607868FFF7AFFFF860FB68002B86
:1019700005D0FB6800221A60FB6800221A7100BFC4
:101980001037BD4680BD80B483B000AF78607B68FF
:101990005B6818460C37BD465DF8047B7047000055
:1019A00080B400AF034B1B781846BD465DF8047B3E
:1019B000704700BF7841002080B584B000AF3B463F
:1019C0001049184600F026F810E03B461846FFF78D
:1019D000DAFFF860FB681B68BB60FB685A68BB688D
:1019E000104698473B46184600F031F83B461846EB
:1019F000FFF7C9FF0346002BE7D100BF00BF103738
:101A0000BD4680BD2855000080B500AFFFF7D4FF6C
:101A100000BF80BD80B483B000AF786039607B6860
:101A20003A681A607B681B681A687B685A607B6832
:101A30005A687B681B685B689A4202D17B68002207
:101A40005A6000BF0C37BD465DF8047B704780B418
:101A500083B000AF78607B685B68002B14D07B6834
:101A60005B681A467B681B689B6813441A467B6850
:101A70005A607B685A687B681B685B689A4204D12D
:101A80007B6800225A6000E000BF0C37BD465DF85D
:101A9000047B704780B586B000AF78600023FB60A0
:101AA00000233B617B687B6107F10C031A46002130
:101AB00044F2010000F01CF800BF1837BD4680BD9D
:101AC00080B400AFBFF34F8F00BF074BDB6803F458
:101AD000E0620549054B1343CB60BFF34F8F00BF56
:101AE00000BF00BFFCE700BF00ED00E00400FA0506
:101AF00080B584B000AFF860B9607A6072B600BF9C
:101B000000F07CFE00BF00F0B9FC0346002BFAD1C8
:101B1000114A124BD31ADB081B0443F0010310498E
:101B2000184600F089FC0F4B1B6803F00103002BE3
:101B300000D000BE084A094BD31ADB081B0443F04F
:101B400002030949184600F077FCFFF7B9FF00BF10
:101B50001037BD4680BD00BFCC570000A457000021
:101B600034550000F0ED00E04055000080B5A0B015
:101B700002AFF860B9607A603B60B868FFF70CFAB2
:101B80007B68FB643B683B6500237B65002387F82B
:101B900058300023FB65D7F880303B6600237B6715
:101BA00007F134017B6F0822B868FFF7B9FA082300
:101BB0007B67FB6B3B643B8FA7F844307B8FA7F8B8
:101BC0004630002387F8493097F8343003F0030398
:101BD000DBB2012B29D17B6BC3F39523BB6697F84E
:101BE0003430C3F3C203DBB287F84830BB8EC3F393
:101BF0008313DBB27B667B6E9A0007F11C017B6F5F
:101C0000B868FFF78DFA7B6E9B007A6F13447B6791
:101C100007F1400207F11C0107F14C030093134642
:101C20007A6EB86E00F0A0FE32E097F8343003F020
:101C30000303DBB2022B2BD1FB8EC3F389139BB2C0
:101C40003B6797F83430C3F3C203DBB287F8483000
:101C50003B6F082B28BF0823FB6607F114017B6F3D
:101C6000FA6EB868FFF75CFA7A6FFB6E13447B6715
:101C70003A6FFB6ED31A3B6707F14C0307F1400242
:101C800007F11400F96E00F011FF3B6F002BDFD15C
:101C9000B868FFF791F900BF7837BD4680BD0000F6
:101CA00080B582B000AF78607B681B781A460D4B18
:101CB0009B5C002B05D07B680433184602F06EFE57
:101CC0000BE07B681B781A46064B9B5C002B04D10B
:101CD0007B680C33184601F0E5FF00BF0837BD46AE
:101CE00080BD00BFA047002080B586B000AFF8607F
:101CF000B9601346FB7100237B61FB681B781A46B1
:101D0000104B9B5C002B08D0FB680433FA79B96850
:101D1000184602F099FE78610EE0FB681B781A46BF
:101D2000084B9B5C002B07D1FB680C33FA79B96830
:101D3000184602F02FF878617B6918461837BD46BF
:101D400080BD00BFA047002080B483B000AF7860A2
:101D50003960044B01221A7000BF0C37BD465DF894
:101D6000047B7047BC410020B0B58CB000AF034687
:101D7000FB711A4B07F108041D460FCD0FC495E8FF
:101D80000F0084E80F000623BB604FF0FF33FB60B9
:101D90004FF0FF333B614FF0FF337B614FF0EB734C
:101DA0003B62FB79002B01D00D4A00E0002207F1D5
:101DB000080319460B48FFF719FAF862FB6ABB6281
:101DC000BB6A002B02D0B86AFFF764FE064AFB79B3
:101DD000137000BF3037BD46B0BD00BF5055000086
:101DE000491D0000FC3F0020BD41002080B588B0A7
:101DF00000AFF860B9607A607B68FB77114B002216
:101E00001A70FB7F1A46B9680F48FFF76DFFB8617B
:101E1000BB697B617B69002B02D07869FFF73AFED2
:101E200000BF0A4B1B78002B07D0064B1B78DBB298
:101E300083F00103DBB2002BF3D100BF2037BD4696
:101E400080BD00BFBC410020FC3F0020BD41002000
:101E500080B584B002AF78603960064B00934023B0
:101E6000054A39687868FFF781FE00BF0837BD462C
:101E700080BD00BFED1D00007C41002080B483B018
:101E800000AF786000BF0C37BD465DF8047B70473B
:101E900080B582B000AF78600448FFF701FF0020F2
:101EA000FFF762FF00BF0837BD4680BDFC3F002042
:101EB00080B582B000AF786039607B681B681B68B2
:101EC00039687868984700BF0837BD4680BD80B53F
:101ED00082B000AF78607B681B685B687868984761
:101EE00000BF0837BD4680BD80B582B000AF7860C6
:101EF0007B681B689B687868984700BF0837BD46B9
:101F000080BD80B483B000AF78607B68DB6801225D
:101F10005A7100BF0C37BD465DF8047B704780B432
:101F200083B000AF78607B68DB685B7918460C375C
:101F3000BD465DF8047B704780B400AF044A054B92
:101F4000D31ADB081846BD465DF8047B704700BF16
:101F5000F4570000A457000080B586B000AF786049
:101F60000B46FB70FB78002B1FD0FFF7E5FF3861B5
:101F700000237B6113E07B699B000E4A1344FB60E6
:101F8000FB681B881A467B681B689A4204D17B68F1
:101F90007A691A60002309E07B6901337B617A6901
:101FA0003B699A42E7D3052300E00023184618371F
:101FB000BD4680BDBC40002080B584B000AF7860D5
:101FC0000B46FB70FA783B1D11461846FFF7C4FF1D
:101FD0000346002B07D17B68DB00054A1344FB60F6
:101FE000FB681B6800E0002318461037BD4680BD23
:101FF000A457000080B485B000AF78600B46FB703A
:102000007B68DB00144A1344BB60FB78013B032B65
:1020100018D801A252F823F0292000002F20000038
:10202000352000003D2000000223FB730DE0042357
:10203000FB730AE0BB681B79FB7306E0BB685B7946
:10204000FB7302E00023FB7300BFFB7B18461437D1
:10205000BD465DF8047B7047A457000080B485B08E
:1020600000AF786039600023FB737B681B7803F056
:102070000403DBB2002B23D07B681B78C3F301037E
:10208000DBB2012B02D0022B0CD017E03B681B689F
:102090007A681288C2F38312D2B213449A1C3B6846
:1020A0001A600BE03B681B687A685288C2F3891299
:1020B00092B213449A1C3B681A6000BF0123FB7361
:1020C000FB7B18461437BD465DF8047B7047000063
:1020D00080B58AB000AF0023FB84384801F052F984
:1020E000374801F04FF9374B5B683B61354B9B68D4
:1020F000BB613A69BB69134002339B00314A134408
:1021000004333B6207F110031946386AFFF7A6FF54
:102110000346002B09D03A69BB69134002339B0088
:10212000284A134404333B62ECE700BF0023FB6101
:1021300011E03B695A1C3A61BA691340FA6992008E
:10214000391D0A441F4902339B000B445B6813602E
:10215000FB690133FB61FB69012BEAD93B79C3F3CE
:102160000103DBB2012B0DD0022B16D17B89FB843E
:10217000FB88C3F389139BB203339A083B6913446A
:102180003B610BE07B89FB84BB88C3F38313DBB229
:102190001A463B6913443B6100E000BF084801F068
:1021A000FEF878617B69002B02D03B69054A5360D9
:1021B000FB8C18462837BD4680BD00BFA8460020CE
:1021C000A44600209042002080B584B000AF0021DA
:1021D000074801F05BF8F860FB68BB60BB6883F3FD
:1021E00010037B607B6818461037BD4680BD00BF7A
:1021F000AC46002080B588B000AFF860B9607A6066
:102200003B60FB681B0CBB61FFF7DEFFF861FB69FD
:1022100019043B685A1CBB6A1340BA690A431B493C
:1022200002339B000B445A603A68BB6A1340023386
:102230009B00164A134404337B61FB6803F00703D9
:10224000D9B27A69137861F3C50313707B6803F020
:102250000F03D9B27A69138861F389131380BB68BD
:10226000C3F315017A69136861F39F2313607A69D8
:102270001378012161F3010313707A6913786FF306
:102280008203137000BF2037BD4680BD90420020FE
:1022900080B58CB000AFF860B9601346FB71FB6885
:1022A0000233BB62012387F827300023FB7607F156
:1022B0001B031846FEF7CAFD384B1A68BB681A6044
:1022C000364B9A68354B5968344B1B68CB1A13440C
:1022D0000133FB6214E00121314801F021F8FFF7DE
:1022E000F7FEF861F9692E4801F01AF82B4B9A684D
:1022F0002A4B5968294B1B68CB1A13440133FB62E4
:10230000BA6AFB6A9A42E6D897F82730002B3BD08E
:1023100000237B61FB79002B11D03B7D012262F30E
:1023200001033B753B7D43F004033B75FB6803F001
:102330000F03DAB2BB8A62F38913BB8210E03B7DE4
:10234000022262F301033B753B7D43F004033B75BE
:10235000FB68C3F309039AB2FB8A62F38F13FB8213
:102360000E4B1A680D4B9B68134002339B000B4ABF
:10237000134404333B627A693B6A1A60074B1A685C
:10238000BB6A1344054A1360FB7E1846FEF769FDDD
:1023900097F8273018463037BD4680BD9042002060
:1023A000AC46002080B58AB002AFF860B9607A60B0
:1023B0003B60204B9B687B6107F1100301221946AB
:1023C0003868FFF765FF0346002B24D03B690233D2
:1023D000FB610023BB6111E0BB699B007A681A4472
:1023E000FB69591CF96179690B4012681149023384
:1023F0009B000B445A60BB690133BB61BA693B68FF
:102400009A42E9D33A697B69009313463A68B968FE
:10241000F868FFF7EFFE074B93F82034002B05D048
:1024200000BF00F02BF80346002BFAD100BF203785
:10243000BD4680BD9042002080B582B000AF78607C
:1024400039600023002239687868FFF7ABFF00BFCE
:102450000837BD4680BD000080B400AF064B5A6807
:10246000054B1B689A420CBF01230023DBB21846C0
:10247000BD465DF8047B70479042002080B598B05F
:1024800000AFFFF7E9FF0346002B01D00023A9E1CD
:10249000924B0022C3F81824BFF34F8F00BF8F4B1D
:1024A0005B683B618D4B9B683B643A693B6C1340B6
:1024B00002339B00894A134404337B640023FB6589
:1024C0000023BB650023FB6307F110031946786CFA
:1024D000FFF7C4FD0346002B19D0804BD3F8183406
:1024E000002B14D17D4B1A683B699A4205D87B4B6F
:1024F0001B687A4A5360002374E13A693B6C1340CD
:1025000002339B00754A134404337B64DCE70023E9
:102510007B6511E03B695A1C3A613A6C13407A6D55
:102520009200391D0A446D4902339B000B445B68DD
:1025300013607B6D01337B657B6D012BEAD93B79A1
:1025400003F00303DBB2022B40F09280FB88C3F35D
:1025500089139BB27B63FB88C3F389139BB2502B17
:1025600028BF50239BB23B633B6BC3F309039AB272
:10257000FB8862F38F13FB803B6B0833FB623B7974
:10258000C3F3C203DBB2FB63F96A5548FEF776FC7E
:10259000F865FB6D002B00F0C480F86DFEF7FCFCC5
:1025A000391DBB6D0822F86DFEF7A4FDBB6D083325
:1025B000BB653B69DA433B6C134001339B00BB6254
:1025C0003A6BBB6A9A423DD9BB6A002B08D03A6984
:1025D0003B6C134002339B00404A1344043300E039
:1025E000404B3B62BB6A002B02D0BB6ADBB201E00E
:1025F0003B6BDBB2FB77BB6A002B01D0394B00E0B1
:102600000023BB61BB6A002B06D03B6BDAB2BB6A0E
:10261000DBB2D31ADBB200E00023FB75FA7FBB6D9F
:10262000396AF86DFEF766FDFB7FBA6D1344BB6532
:10263000BB69002B15D0FA7DBB6DB969F86DFEF74B
:1026400059FD0EE03A693B6C134002339B00234A6C
:10265000134404337B62BB6D3A6B796AF86DFEF705
:1026600049FD7B6B03339A083B6913443B6158E097
:102670003B7903F00303DBB2012B52D1BB88C3F3D8
:102680008313DBB2062B28BF0623DAB2BB8862F3C2
:102690008913BB80BB88C3F38313DBB20233BB63F4
:1026A0003B79C3F3C203DBB2FB63BB6B9B001946F0
:1026B0000B48FEF7E3FBF865FB6D002B31D0F86D9E
:1026C000FEF76AFC391DBB6D0822F86DFEF712FD9E
:1026D000BB6D0833BB6500237B651AE09042002088
:1026E000045800009C4200203B695A1C3A613A6C35
:1026F000134002339B003D4A1344191DBB6D042255
:10270000F86DFEF7F7FCBB6D0433BB657B6D0133E1
:102710007B65BB88C3F38313DBB21A467B6D9342A0
:10272000E2D3FB6D002B3DD0304BD3F810343B652A
:102730002E4BD3F81834002B1BD0F86DFEF73CFC61
:102740004AE0002387F84F30386DFFF7E8FB034677
:10275000002B02D0012387F84F3097F84F30002B21
:1027600003D0F96D386DFFF7A3FB3B6DDB681B6889
:102770003B653B6D002BE4D1F86DFEF71DFC00239B
:10278000FB70FB1C1846FEF761FB184BD3F818349E
:10279000002B02D13B69154A5360FB781846FEF7BF
:1027A00060FB19E0114BD3F81034BB6406E0B86C41
:1027B000FFF79AFBBB6CDB681B68BB64BB6C002B30
:1027C000F5D10B4A0B4BD31ADB081B0443F0020371
:1027D00009491846FFF730FEFFF73EFE034683F037
:1027E0000103DBB218466037BD4680BD9042002031
:1027F000CC570000A45700009455000080B582B06B
:1028000000AF0D4BD3F810347B600B4B012283F8E3
:10281000202409E07868FFF774FB7868FFF757FB1E
:102820007B68DB681B687B607B68002BF2D100BF94
:1028300000BF0837BD4680BD9042002080B483B001
:1028400000AF7860396000BF0C37BD465DF8047B8F
:102850007047000090B585B002AF786039607B6842
:10286000DB88002B0AD07B68DB881A461F4B00935D
:1028700013461F4A1F49386800F0A9F97B681B7A84
:10288000052B2ED07B685B7A002B12D07B689B884F
:102890001A467B681B7A19461046FFF7ABFB0346C6
:1028A0001A46154B53F822301A461449386800F07E
:1028B0008EF97B681B6819463868FFF7BFFF7B6895
:1028C0001B7A1A460E4B53F822407B689B880021E6
:1028D0001846FFF771FB034622460A49386800F0A4
:1028E00076F900BF0C37BD4690BD00BFC85500004B
:1028F000D8550000105600002C400020285600003B
:10290000184000202C56000080B584B000AFF8605D
:10291000B9601346FB71FB681B7A052B0FD0FB686F
:102920005B7A002B06D00D4B1B681A460C49B86821
:1029300000F04DF90B49B86800F049F906E0FB7961
:10294000002B03D00749B86800F041F9B86800F0DF
:1029500025F900BF1037BD4680BD00BF2C400020C8
:102960002856000038560000B0B58AB004AFF860B1
:10297000B9607A603B60BB6A1B7BFB75BB6A002257
:102980001A73B96A3868FFF765FF7B68062B7FD832
:1029900001A252F823F000BFB5290000BF290000B2
:1029A000CF290000E3290000012A0000292A0000A5
:1029B000592A0000F968B86A00F009F969E0BB68B3
:1029C0001B681A46F968B86A00F001F961E0BB6853
:1029D0001A68BB6804331B68F968B86A00F0F7F836
:1029E00057E0BB681A68BB6804331968BB680833D2
:1029F0001B6800930B46F968B86A00F0E8F848E0F5
:102A0000BB681968BB6804331868BB6808331B6867
:102A1000BA680C3212680192009303460A46F968BC
:102A2000B86A00F0D4F834E0BB681868BB680433B7
:102A30001C68BB6808331B68BA680C321268B96836
:102A40001031096802910192009323460246F96809
:102A5000B86A00F0BCF81CE0BB681C68BB680433B3
:102A60001D68BB6808331B68BA680C321268B96805
:102A700010310968B868143000680390029101921F
:102A800000932B462246F968B86A00F0A0F800E0EF
:102A900000BF0022B96A3868FFF736FFBB6AFA7DCB
:102AA0001A7300BF1837BD46B0BD00BF80B586B0F1
:102AB00000AFF860B9607A603B60BB68082B5CD8F7
:102AC0003B681B7BFB743B6800221A73396878688B
:102AD000FFF7C0FE00237B6114E07A69BB689A426D
:102AE00009D2FA687B6913441B781A46254938686D
:102AF00000F06DF803E02449386800F068F87B695D
:102B000001337B617B69072BE7D92049386800F0E6
:102B10005EF800237B6124E07A69BB689A4219D28F
:102B2000FA687B6913441B78BB74BB7C7E2B0AD884
:102B3000BB7C0133164A13441B7803F09703002B28
:102B400001D0BB7C00E02E231A461249386800F001
:102B50003EF803E01049386800F039F87B6901332A
:102B60007B617B69072BD7D9012239687868FFF729
:102B7000CBFE3B68FA7C1A7300E000BF1837BD46F5
:102B800080BD00BF3C56000044560000485600007F
:102B9000885600004C5600005056000080B582B0A8
:102BA00000AF78607B689B68002B0CD07B685B690A
:102BB0007A6810697A6811687A68926898477B68C1
:102BC00000229A6000E000BF0837BD4680BD0EB409
:102BD00080B585B000AF7860FB69002B0CD0002376
:102BE000FB6007F12003FB6007F10C031A46F9694B
:102BF000786800F0AFF900E000BF1437BD46BDE8CB
:102C0000804003B0704780B582B000AF78600B465B
:102C1000FB70FB780A2B03D10D217868FFF7F3FFD7
:102C20007B681A687B689B68581C796888601344C5
:102C3000FA781A707B689A687B685B689A4202D35C
:102C40007868FFF7ABFF00BF0837BD4680BD80B591
:102C500086B000AFF860B9607A603B6000237B61AA
:102C60003B6803F00103002B21D00AE0BB6801336D
:102C7000BB607B6901337B61FB7C1946F868FFF719
:102C8000C2FFBB681B78FB74FB7C002BEED106E017
:102C90007B68013B7B602021F868FFF7B4FF7A680E
:102CA0007B699A422BD97B68002BF1D127E0BB6866
:102CB000002B0BD0B86802F0E3FA786106E07B687D
:102CC000013B7B602021F868FFF79DFF7A687B69F4
:102CD0009A420ED97B68002BF1D10AE0BB68013320
:102CE000BB607B6901337B61FB7C1946F868FFF7A9
:102CF0008AFFBB681B78FB74FB7C002BEED100BF06
:102D00001837BD4680BD000080B588B000AFF860C0
:102D1000B9607A603B60BB68FB610123BB6107E07F
:102D2000FA697B68B2FBF3F3FB61BB690133BB61FA
:102D3000FA697B689A42F3D23A68BB699A4201D930
:102D40003B68BB61FB6A03F00103002B1FD1BB6A28
:102D5000002B1CD0FB6A03F00203002B05D03B685C
:102D6000002B02D13023FB7501E02023FB7507E027
:102D7000BB6A013BBB62FB7D1946F868FFF743FF66
:102D8000BB6A002B03D0BA69BB6A9A42F0D3012315
:102D9000FB613B68012B03D93B68013B3B6009E0C9
:102DA000BA68FB69B2FBF3F33B613A697B689A420C
:102DB00000D205E0FB697A6802FB03F3FB61E8E7F8
:102DC000BA68FB69B2FBF3F33B613B69FA6902FB4A
:102DD00003F3BA68D31ABB60154A3B6913441B78E6
:102DE0001946F868FFF70FFFFA697B68B2FBF3F347
:102DF000FB61FB69002BE3D1FB6A03F00103002BAD
:102E000011D0BB6A002B0ED006E0BB6A013BBB624F
:102E10002021F868FFF7F7FEBB6A002B03D0BA69E0
:102E2000BB6A9A42F1D300BF2037BD4680BD00BFC8
:102E30005456000080B588B002AFF860B9607A607F
:102E40003B60BB68002BB8BF5B423B6101237B61E9
:102E500007E07B683A6992FBF3F33B617B690133DE
:102E60007B617B683A699A42F3DA3A687B699A42F5
:102E700001D93B687B613B6A002B0AD0BB68002B01
:102E800004DB7B6A03F00403002B02D03B6A013BA6
:102E90003B627B6A03F00203002B02D03B68002BED
:102EA00016D07B6A03F00103002B11D13B6A002B83
:102EB0000ED006E03B6A013B3B622021F868FFF739
:102EC000A2FE3B6A002B03D07A693B6A9A42F1D397
:102ED000BB68002B07DABB685B42BB602D21F8683A
:102EE000FFF791FE08E07B6A03F00403002B03D098
:102EF0002B21F868FFF787FE7B6A03F00203002BA3
:102F000019D07B6A03F00103002B14D13B68002B1E
:102F100011D13B6A002B0ED006E03B6A013B3B62BD
:102F20003021F868FFF76FFE3B6A002B03D07A6907
:102F30003B6A9A42F1D3B9687B6A01933B6A00937A
:102F40003B687A68F868FFF7DFFE00BF1837BD46B8
:102F500080BD000080B58EB002AFF860B9607A60C5
:102F6000BB68002B00F08E81BB681B7887F82F3080
:102F7000BB680133BB6097F82F30002B00F07981DC
:102F800097F82F30252B40F0688100233B62012306
:102F9000BB62BB681B7887F82F3097F82F30302B37
:102FA0000DD0302B1BDC2B2B11D02D2B17D13B6AD6
:102FB00043F001033B62BB680133BB6012E03B6A34
:102FC00043F002033B62BB680133BB600AE03B6A2B
:102FD00043F004033B62BB680133BB6002E00023A3
:102FE000BB6200BFBB6A002BD3D10023FB6197F803
:102FF0002F302A2B0CD17B681B68191D7A68116051
:103000001B68FA691344FB61BB680133BB601AE0BB
:10301000BB681B7887F82F3097F82F302F2B12D9E9
:1030200097F82F30392B0ED8BB680133BB60FA6993
:1030300013469B0013445B001A4697F82F30134445
:10304000303BFB61D3E700237B62BB681B7887F8CA
:103050002F3097F82F302E2B1DD1BB680133BB606A
:10306000BB681B7887F82F3097F82F302F2B12D999
:1030700097F82F30392B0ED8BB680133BB607A6AC2
:1030800013469B0013445B001A4697F82F301344F5
:10309000303B7B62E4E7BB681B7887F82F3097F8FA
:1030A0002F306C2B03D097F82F30682B07D1BB68DB
:1030B0000133BB60BB681B7887F82F30EFE797F8C8
:1030C0002F30252B00F0BF80252BC0F2C180782B3C
:1030D00000F3BE80582BC0F2BB80583B202B00F27F
:1030E000B78001A252F823F0D33100005132000022
:1030F00051320000513200005132000051320000C4
:1031000051320000513200005132000051320000B3
:10311000513200006D3100008B310000513200004F
:103120005132000051320000513200008B3100005A
:103130005132000051320000513200005132000083
:1031400051320000513200001332000051320000B1
:1031500051320000F731000051320000AF31000061
:103160005132000051320000D33100007B681B68EF
:10317000191D7A6811601B68BB62BB6AFB75FB7D19
:103180001946F868FFF73FFD63E07B681B68191D6F
:103190007A6811601B68BB623B6A0193FB6900930C
:1031A0007B6A0A22B96AF868FFF744FE51E07B683F
:1031B0001B68191D7A6811601B68BB62B96A3B6A9B
:1031C0000193FB6900937B6A0A22F868FFF79CFD74
:1031D0003FE07B681B68191D7A6811601B68BB6241
:1031E000B96A3B6A0193FB6900937B6A1022F86815
:1031F000FFF78AFD2DE07B681B68191D7A68116056
:103200001B68BB613B6AFA69B969F868FFF71FFD83
:103210001FE07B681B68191D7A6811601B68BB6220
:103220003021F868FFF7EFFC7821F868FFF7EBFC36
:10323000B96A002301930823009308231022F86839
:10324000FFF762FD05E02521F868FFF7DCFC00E0F0
:1032500000BFBB680133BB6005E097F82F3019460B
:10326000F868FFF7D0FCBB681B78002B7FF47CAEBE
:1032700000E000BFFB681B7B002B04D0F868FFF761
:103280008DFC00E000BF3037BD4680BD90B486B0F5
:1032900000AF786039607B683A6853E8004F1046A9
:1032A00043E8000191F0000FF7D17C613861F960CB
:1032B0007B6918461837BD4690BC704790B486B0FD
:1032C00000AF786039607B683A6853E8004F44EAA1
:1032D000020043E8000191F0000FF6D17C613861F3
:1032E000F9603B6918461837BD4690BC704790B4EA
:1032F00086B000AF786039607B683A6853E8004F69
:1033000004EA020043E8000191F0000FF6D17C616D
:103310003861F9607B6918461837BD4690BC704724
:1033200090B486B000AF786039607B683A6853E843
:10333000004F04EB020043E8000191F0000FF6D1CA
:103340007C613861F9603B6918461837BD4690BC0E
:10335000704790B486B000AF786039607B683A6897
:1033600053E8004FA4EB020043E8000191F0000F86
:10337000F6D17C613861F9603B6918461837BD4663
:1033800090BC704780B582B000AF7860012178684A
:10339000FFF794FF034618460837BD4680BD80B549
:1033A00082B000AF786000217868FFF7A0FF034685
:1033B00018460837BD4680BD80B483B000AF786042
:1033C0000B46FB707B68DA68FB787968098A01FB39
:1033D00003F3134418460C37BD465DF8047B704771
:1033E00080B483B000AF786039603B687A68D26897
:1033F0009B1A7A68128AB3FBF2F3DBB218460C37D9
:10340000BD465DF8047B704780B584B000AF78603E
:103410000023FB600023BB7207F10A031846FDF787
:1034200015FD7B681B681A687B685B689A421CD92B
:103430007B681B681A68013A1A601B681B7819467A
:103440007868FFF7B9FFF8607B689A687B681B684B
:103450001B68D31AFB727B681B681B79FA7A9A4245
:1034600003D97B681B68FA7A1A71BB7A1846FDF794
:10347000F8FCFB6818461037BD4680BD90B585B096
:1034800000AF786039603B68FB600023FB7207F196
:103490000B031846FDF7DAFC7B681B681C68621C8E
:1034A0001A60F9687868FFF79BFF03462370FB7A80
:1034B0001846FDF7D6FC00BF1437BD4690BD00008E
:1034C00080B483B000AF0346FB71FB7903F01F02A9
:1034D000074997F907305B09012000FA02F241F829
:1034E000232000BF0C37BD465DF8047B704700BF4A
:1034F00000E100E080B483B000AF0346FB71FB79CC
:1035000003F01F02074997F907305B09012000FA11
:1035100002F2203341F8232000BF0C37BD465DF88E
:10352000047B704700E100E080B483B000AF034645
:103530003960FB7197F90730002B0BDA3B68DAB280
:103540000C49FB7903F00F03043B5201D2B20B4448
:103550001A7609E03B68DAB2074997F90730520159
:10356000D2B20B4483F8002300BF0C37BD465DF890
:10357000047B704700ED00E000E100E080B483B020
:1035800000AF78607B681B0B5BB218460C37BD46FA
:103590005DF8047B704780B582B000AF03460A46F1
:1035A000FB711346BB71BA7997F90730114618467B
:1035B000FFF7BAFF00BF0837BD4680BD80B582B0B7
:1035C00000AF0346FB7197F907301846FFF778FF05
:1035D00000BF0837BD4680BD80B582B000AF03464E
:1035E000FB7197F907301846FFF784FF00BF0837D3
:1035F000BD4680BD80B485B000AF78600B467B804F
:103600007B887A68134400221A607B887A681344A6
:103610001B68FB60FB6800BF1437BD465DF8047B88
:10362000704780B483B000AF78600B467B807B88A6
:103630007A6813441B68002B14BF01230023DBB2FC
:1036400018460C37BD465DF8047B704780B483B0E4
:1036500000AF786039607B683A68C3F8042300BF24
:103660000C37BD465DF8047B704780B483B000AF73
:10367000786039607B68D3F804233B681340002BE3
:1036800014BF01230023DBB218460C37BD465DF89A
:10369000047B704780B483B000AF786039607B688A
:1036A0003A68C3F8082300BF0C37BD465DF8047BB9
:1036B000704780B485B000AF78607B68D3F8803401
:1036C000FB607B68FA68C3F88024FB6818461437EF
:1036D000BD465DF8047B704780B483B000AF78606E
:1036E0007B680422C3F8002500BF0C37BD465DF897
:1036F000047B704780B483B000AF78607B680022A1
:10370000C3F8002500BF0C37BD465DF8047B704749
:1037100080B485B000AFF860B9607A60FB687A6801
:10372000C3F81425FB68BA68C3F80C2500BF14372A
:10373000BD465DF8047B704780B582B000AF78600D
:103740004FF0FF324FF0FF317868FFF7E1FF00BF25
:103750000837BD4680BD80B483B000AF78607B6819
:10376000D3F80C3518460C37BD465DF8047B70471E
:1037700080B483B000AF78607B68D3F81435184606
:103780000C37BD465DF8047B704780B483B000AF52
:1037900078607B68D3F8083518460C37BD465DF86D
:1037A000047B704780B483B000AF78607B68D3F847
:1037B000103518460C37BD465DF8047B704780B461
:1037C00085B000AFF860B9607A60FB68BA68C3F88A
:1037D0000825FB687A68C3F8102500BF1437BD467A
:1037E0005DF8047B704780B582B000AF78604FF021
:1037F000FF324FF0FF317868FFF7E1FF00BF083775
:10380000BD4680BD80B483B000AF78607B68D3F8DC
:103810001835DBB218460C37BD465DF8047B70479F
:1038200080B483B000AF78600B46FB70FA787B6899
:10383000C3F81C2500BF0C37BD465DF8047B7047FC
:1038400080B483B000AF78600B46FB70FB787A6879
:10385000134401221A6000BF0C37BD465DF8047B9B
:10386000704780B483B000AF78600B46FB7013469E
:10387000BB70FA78BB781343DBB21A467B68C3F897
:103880006C2500BF0C37BD465DF8047B704780B4E3
:1038900083B000AF786039607B683A68C3F824254C
:1038A00000BF0C37BD465DF8047B704780B483B021
:1038B00000AF78607B681B681F2B02D84FF0A043D5
:1038C00006E07B681B6803F01F027B681A60034BED
:1038D00018460C37BD465DF8047B70470003005066
:1038E00080B584B000AF7860084611461A4603469A
:1038F000FB700B46BB7013467B703B1D1846FFF7F1
:10390000D5FFF860FA78BB785B001A437B789B00A0
:103910001A433B7E1B0242EA03013B7F1B047A6889
:103920001943FB6802F5E07243F8221000BF10371C
:10393000BD4680BD80B584B002AF7860002301939E
:10394000002300930023012201217868FFF7C8FFBC
:1039500000BF0837BD4680BD80B584B002AF786037
:103960000B46FB70FB78002201920022009200229D
:1039700000217868FFF7B4FF00BF0837BD4680BD5F
:1039800080B584B002AF78600023019300230093D8
:103990000023012200217868FFF7A2FF00BF08374B
:1039A000BD4680BD80B584B000AF78603B1D184631
:1039B000FFF77CFFF8607B68012202FA03F31946E7
:1039C000F86800F004F800BF1037BD4680BD80B431
:1039D00083B000AF786039607B683A68C3F8082527
:1039E00000BF0C37BD465DF8047B704780B582B0E0
:1039F00000AF786039603B681B68B3F1FF3F09D0C6
:103A00003B681B681846FFF7CDFF3B681B681846EC
:103A1000FFF790FF3B685B68B3F1FF3F05D03B6861
:103A20005B6800211846FFF797FF7B681A683B68C0
:103A30009B6919461046FFF72AFF7B6818683B68A8
:103A4000597D3B681B7D1A46FFF70BFF7B681868A2
:103A50003B6819683B685B681A46FFF759FE3B688C
:103A60001B7D012B22D13B689B68B3F1FF3F05D042
:103A70003B689B6800211846FFF76EFF3B68DB68D8
:103A8000B3F1FF3F09D03B68DB681846FFF78AFFB8
:103A90003B68DB681846FFF74DFF7B6818683B689A
:103AA000D9683B689B681A46FFF789FE00BF083754
:103AB000BD4680BD80B582B000AF78600B46FB701C
:103AC0007B681B684FF48E711846FFF793FD7B6887
:103AD0001B684FF4A2711846FFF78CFD7B681B68CA
:103AE0000E491846FFF7B2FD7B681B681846FFF7C2
:103AF00045FD03461A46FB7819461046FFF74BFD75
:103B00007B681B681846FFF739FD03461846FFF728
:103B100055FD00BF0837BD4680BD00BF80000200D4
:103B200080B582B000AF78607B681B680849184692
:103B3000FFF7B0FD7B681B681846FFF71FFD0346C3
:103B40001846FFF749FD00BF0837BD4680BD00BFDE
:103B50008402020080B586B000AF78607B681B6885
:103B60001846FFF7F8FD78617B681B681846FFF779
:103B7000FFFD38617B681B681846FFF706FEF8609A
:103B80007B681B681846FFF70DFEB8607B681B68F2
:103B90001846FFF7D1FD7B681B681846FFF723FE28
:103BA0007B69B3F1FF3F02D07869FFF7E9FE3B691B
:103BB000B3F1FF3F02D03869FFF7E2FEBB68B3F113
:103BC000FF3F02D0B868FFF7DBFEFB68B3F1FF3FB1
:103BD00002D0F868FFF7D4FE00BF1837BD4680BD9D
:103BE00080B586B000AFF860B9607A60FB681B7979
:103BF0001A462C2303FB02F3284A13443B6100239B
:103C00007B613B6993F82A30002B03D008237B614A
:103C10007B693EE0FB681A68FB681B791946204BFC
:103C200053F8213019461046FDF764FE0346002B79
:103C300003D011237B617B692BE0B968F868FFF73B
:103C4000D5FE3B697A685A60BB681A693B691A609D
:103C50003B695B68002B05D0BB681B7F1946F86881
:103C6000FFF728FFFB681B681846FFF735FD3B6927
:103C700000229A613B690022DA613B69002283F8E5
:103C800029203B6900225A613B69012283F82A20DE
:103C90007B6918461837BD4680BD00BFB44600207A
:103CA0006C56000080B584B000AF78607B681B79EB
:103CB0001A462C2303FB02F3104A1344FB607B6873
:103CC0001B681846FFF716FDFB685B68002B02D0E7
:103CD0007868FFF725FF7868FFF73CFF7B681B6873
:103CE0001846FDF73BFEFB68002283F82A20FB689C
:103CF00000225A6000BF1037BD4680BDB446002088
:103D000080B584B000AF786039604FF48E71786808
:103D1000FFF770FC3B689A683B681B6A13441B788A
:103D2000FB733B681B6A5A1C3B681A62FB7B194693
:103D30007868FFF775FD00BF1037BD4680BD80B5C0
:103D400084B000AF786039603B685B69FB6016E067
:103D50003B6893F82830DBB2002B01D0002314E03D
:103D60004FF48E717868FFF75CFC034683F0010323
:103D7000DBB2002BECD139687868FFF7C1FF3B68F4
:103D80001B6AFA689A42EBD8012318461037BD46E1
:103D900080BD000080B586B000AFF860B9607A6081
:103DA000FB681B791A462C2303FB02F32E4A1344AB
:103DB0003B61F86800F05AF80346002B03D011234A
:103DC0007B617B694CE03B697A685A613B69BA6800
:103DD0009A603B6900221A623B69002283F828201E
:103DE00000237B61FB681B684FF48E711846FFF758
:103DF00001FCFB681B6808211846FFF721FDFB68E2
:103E00001B6839691846FFF77BFF3B695B68002B2D
:103E100025D1FB681B6839691846FFF790FF0346F8
:103E200083F00103DBB2002B02D00F237B6113E090
:103E300000BFFB681B684FF48E711846FFF7F1FB5B
:103E4000034683F00103DBB2002BF2D1FB681B6851
:103E50000C211846FFF7F4FC3B6900225A617B698C
:103E600018461837BD4680BDB446002080B483B0E4
:103E700000AF78607B681B791946094A2C2303FB45
:103E800001F3134414331B68002B14BF01230023D8
:103E9000DBB218460C37BD465DF8047B704700BFA7
:103EA000B446002090B583B000AF786039603B68BD
:103EB0009B69002B08D14FF484717868FFF79AFB57
:103EC0007868FFF79FFC13E04FF484717868FFF780
:103ED00091FB3B68DA683B685B6AD4187868FFF747
:103EE00091FC034623703B685B6A5A1C3B685A622C
:103EF0000C37BD4690BD80B588B000AFF860B960A2
:103F00007A6001233B74BB68BB617B687B61FB68A3
:103F10005B68FA68116807F110021046984700BF05
:103F20002037BD4680BD80B586B000AF786039606F
:103F300000233B723B683B617B689B68FB607B684E
:103F400000225A617B685B687A68116807F1080291
:103F50001046984700BF1837BD4680BD80B58AB06F
:103F600000AF786039604FF400717868FFF77DFB2F
:103F70000346002B39D04FF492717868FFF751FB5C
:103F80000346002B31D04FF492717868FFF732FB73
:103F90004FF401717868FFF77DFB3B6893F8293097
:103FA00083F00103DBB2002B03D004217868FFF714
:103FB00047FC02233B737868FFF77BFB0346BB613A
:103FC0003B689B697B613B68DB683B613B68002227
:103FD0009A613B680022DA613B685B683A68116865
:103FE00007F10C021046984752E004217868FFF769
:103FF0003CFB0346002B4BD04FF484717868FFF7ED
:1040000010FB0346002B43D039687868FFF74AFF5E
:104010003B689A693B685B6A9A4239D13B68DB69C5
:10402000002B19D03B68DB687B623B685B6A3B62B4
:104030003B68DA693B689A613B681A693B68DA60F9
:104040003B680022DA613B6800225A627A6A396A68
:104050003868FFF750FF1BE03B6893F8293083F086
:104060000103DBB2002B03D004217868FFF7E8FBE3
:104070004FF401717868FFF70DFB3B6800229A61ED
:104080003B68596A3B68DB681A463868FFF733FFBC
:104090004FF48E717868FFF7C4FA0346002B24D0E2
:1040A0003B685B69FB613B681B6AFA699A420DD900
:1040B0003B6893F82830DBB283F00103DBB2002BBE
:1040C00004D039687868FFF71BFE0EE04FF48E715C
:1040D0007868FFF78FFA3B685B69002B05D03B6877
:1040E0005B6919463868FFF71EFF4FF4A2717868C4
:1040F000FFF797FA0346002B1CD04FF4A2717868A3
:10410000FFF778FA3B6893F82930002B03D00021A1
:104110007868FFF795FB3B689B69002B0AD03B68EA
:1041200000229A613B68596A3B68DB681A46386826
:10413000FFF7E1FE00BF2837BD4680BD80B500AF68
:1041400002490348FFF70AFF00BF80BDB4460020C4
:104150000020004080B483B000AF0346FB71FB79C0
:1041600003F01F02074997F907305B09012000FAA5
:1041700002F241F8232000BF0C37BD465DF8047BF6
:10418000704700BF00E100E080B483B000AF034699
:10419000FB71FB7903F01F02074997F907305B09B0
:1041A000012000FA02F2203341F8232000BF0C372F
:1041B000BD465DF8047B704700E100E080B483B049
:1041C00000AF03463960FB7197F90730002B0BDA1B
:1041D0003B68DAB20C49FB7903F00F03043B520150
:1041E000D2B20B441A7609E03B68DAB2074997F974
:1041F00007305201D2B20B4483F8002300BF0C37C2
:10420000BD465DF8047B704700ED00E000E100E092
:1042100080B483B000AF78607B6803F06043B3F193
:10422000005F0CBF01230023DBB218460C37BD46EC
:104230005DF8047B704780B483B000AF78607B6822
:104240001B0B5BB218460C37BD465DF8047B70470C
:1042500080B582B000AF03460A46FB711346BB71BE
:10426000BA7997F9073011461846FFF7A7FF00BF44
:104270000837BD4680BD80B582B000AF0346FB71F4
:1042800097F907301846FFF765FF00BF0837BD46AE
:1042900080BD80B582B000AF0346FB7197F907304F
:1042A0001846FFF771FF00BF0837BD4680BD80B4D8
:1042B00085B000AF78600B467B807B887A681344BA
:1042C00000221A607B887A6813441B68FB60FB68D5
:1042D00000BF1437BD465DF8047B704780B483B0DF
:1042E00000AF78600B467B807B887A6813441B683C
:1042F000002B14BF01230023DBB218460C37BD4648
:104300005DF8047B704780B483B000AF786039609B
:104310007B68D3F800223B68DB431A407B68C3F814
:10432000002200BF0C37BD465DF8047B704780B4A7
:1043300083B000AF786039607B683A68C3F80423C3
:1043400000BF0C37BD465DF8047B704780B483B076
:1043500000AF786039607B683A68C3F8082300BF13
:104360000C37BD465DF8047B704780B485B000AF64
:1043700078607B68D3F88034FB607B68FA68C3F8A8
:104380008024FB6818461437BD465DF8047B7047EF
:1043900080B483B000AF78607B680822C3F8002542
:1043A00000BF0C37BD465DF8047B704780B483B016
:1043B00000AF78607B680022C3F8002500BF0C378F
:1043C000BD465DF8047B704780B485B000AFF860EF
:1043D000B9607A60FB68BA68C3F80C25FB687A6834
:1043E000C3F8142500BF1437BD465DF8047B704741
:1043F00080B582B000AF78604FF0FF324FF0FF31F0
:104400007868FFF7E1FF00BF0837BD4680BD80B484
:1044100083B000AF78607B68D3F80C3518460C3752
:10442000BD465DF8047B704780B483B000AF786010
:104430007B68D3F8143518460C37BD465DF8047B0D
:10444000704780B483B000AF78607B68D3F80835DC
:1044500018460C37BD465DF8047B704780B483B0C6
:1044600000AF78607B68D3F8103518460C37BD462E
:104470005DF8047B704780B485B000AFF860B96028
:104480007A60FB68BA68C3F80825FB687A68C3F8E5
:10449000102500BF1437BD465DF8047B704780B51A
:1044A00082B000AF78604FF0FF324FF0FF31786894
:1044B000FFF7E1FF00BF0837BD4680BD80B483B081
:1044C00000AF78600B46FB70FB787A6813440122DA
:1044D0001A6000BF0C37BD465DF8047B704780B49E
:1044E00083B000AF78600B46FB701346BB70FA7860
:1044F000BB781343DBB21A467B68C3F86C2500BF58
:104500000C37BD465DF8047B704780B483B000AFC4
:10451000786039607B683A68C3F8242500BF0C379F
:10452000BD465DF8047B704780B485B000AFF8608D
:10453000B9607A60BA68FB68C3F84425FB687A689A
:10454000C3F8482500BF1437BD465DF8047B7047AB
:1045500080B483B000AF78607B68D3F84C351846E0
:104560000C37BD465DF8047B704780B483B000AF64
:1045700078607B68D3F83C3518460C37BD465DF84B
:10458000047B704780B483B000AF78607B681B68A1
:104590001F2B02D84FF0A04306E07B681B6803F096
:1045A0001F027B681A60034B18460C37BD465DF846
:1045B000047B70470003005080B584B000AF786082
:1045C000084611461A460346FB700B46BB7013465D
:1045D0007B703B1D1846FFF7D5FFF860FA78BB7873
:1045E0005B001A437B789B001A433B7E1B0242EA26
:1045F00003013B7F1B047A681943FB6802F5E072F4
:1046000043F8221000BF1037BD4680BD80B584B08E
:1046100002AF78600023019300230093002301225E
:1046200001217868FFF7C8FF00BF0837BD4680BD8D
:1046300080B584B002AF78600B46FB70FB78002237
:10464000019200220092002200217868FFF7B4FF57
:1046500000BF0837BD4680BD80B584B002AF78602A
:104660000023019300230093002301220021786896
:10467000FFF7A2FF00BF0837BD4680BD80B584B0FC
:1046800000AF78603B1D1846FFF77CFFF8607B6841
:10469000012202FA03F31946F86800F004F800BF9B
:1046A0001037BD4680BD80B483B000AF78603960FC
:1046B0007B683A68C3F8082500BF0C37BD465DF833
:1046C000047B704780B582B000AF786039603B688A
:1046D0001B68B3F1FF3F09D03B681B681846FFF722
:1046E000CDFF3B681B681846FFF790FF3B685B688F
:1046F000B3F1FF3F05D03B685B6800211846FFF728
:1047000097FF7B681A683B689B6919461046FFF75C
:10471000FCFE7B6818683B68597D3B681B7D1A4628
:10472000FFF7DDFE7B6818683B6819683B685B68CB
:104730001A46FFF749FE3B681B7D012B22D13B68DF
:104740009B68B3F1FF3F05D03B689B68002118468A
:10475000FFF76EFF3B68DB68B3F1FF3F09D03B68B2
:10476000DB681846FFF78AFF3B68DB681846FFF7EF
:104770004DFF7B6818683B68D9683B689B681A46A0
:10478000FFF779FE00BF0837BD4680BD80B582B017
:1047900000AF78600B46FB707B681B684FF4887134
:1047A0001846FFF784FD7B681B684FF4907118462C
:1047B000FFF77DFD7B681B684FF492711846FFF789
:1047C00076FD7B681B684FF4A2711846FFF76FFDFA
:1047D0007B681B684FF4AC711846FFF768FD7B6877
:1047E0001B680E491846FFF7A2FD7B681B68184638
:1047F000FFF721FD03461A46FB7819461046FFF7DE
:1048000027FD7B681B681846FFF715FD0346184611
:10481000FFF731FD00BF0837BD4680BD10034200E1
:1048200080B582B000AF78607B681B680849184685
:10483000FFF78CFD7B681B681846FFF7FCFC0346FE
:104840001846FFF726FD00BF0837BD4680BD00BFF4
:104850001003420080B586B000AF78607B681B68AB
:104860001846FFF7D4FD78617B681B681846FFF790
:10487000DBFD38617B681B681846FFF7E2FDF860D6
:104880007B681B681846FFF7E9FDB8607B681B680A
:104890001846FFF7ADFD7B681B681846FFF7FFFD64
:1048A0007B69B3F1FF3F02D07869FFF7D5FE3B6922
:1048B000B3F1FF3F02D03869FFF7CEFEBB68B3F11A
:1048C000FF3F02D0B868FFF7C7FEFB68B3F1FF3FB8
:1048D00002D0F868FFF7C0FE00BF1837BD4680BDA4
:1048E00080B586B000AFF860B9607A60FB681B796C
:1048F0001A461346DB0013449B00264A13443B61CF
:1049000000237B613B6993F82030002B03D0082300
:104910007B617B693AE0FB681A68FB681B79194682
:104920001D4B53F8213019461046FCF7E3FF0346B0
:10493000002B03D011237B617B6927E0B968F868FD
:10494000FFF7C0FE3B697A685A60BB681A693B6929
:104950001A603B695B68002B05D0BB681B7F19465A
:10496000F868FFF713FFFB681B681846FFF710FD98
:104970003B6900229A613B690022DA613B690022AF
:104980005A613B69012283F820207B691846183759
:10499000BD4680BDE04600207856000080B584B05A
:1049A00000AF78607B681B791A461346DB0013441E
:1049B0009B00244A1344FB60FB685B68002B02D019
:1049C0007868FFF72DFF7B681B6820211846FFF7EA
:1049D0009AFC7B681B6804211846FFF76FFD7B6813
:1049E0001B684FF4AC711846FFF761FC7B681B68CD
:1049F0000C211846FFF762FD00BF7B681B684FF46F
:104A0000AC711846FFF76AFC034683F00103DBB282
:104A1000002BF2D17B681B681846FFF7C7FC78684B
:104A2000FFF718FF7B681B681846FCF797FFFB68C9
:104A3000002283F82020FB6800225A6000BF103754
:104A4000BD4680BDE046002080B588B000AFF8606C
:104A5000B9607A60FB681B791A461346DB00134481
:104A60009B00414A13447B61B868FFF7D1FB0346C2
:104A700083F00103DBB2002B03D01023FB61FB6941
:104A80006EE0F86800F072F80346002B03D01123A3
:104A9000FB61FB6964E07B697A685A617B69BA688B
:104AA0009A600023FB61FB681B684FF49071184605
:104AB000FFF7FDFBFB681B684FF4AC711846FFF76E
:104AC000F6FBFB6818687B6999687B695B691A4625
:104AD000FFF72AFDFB681B6808211846FFF7EEFC6C
:104AE0007B695B68002B3AD1FB681B684FF49071BF
:104AF0001846FFF7F3FB0346BB76FB681B684FF4D1
:104B0000AC711846FFF7EAFB0346FB76BB7E83F0E9
:104B10000103DBB2002B05D0FB7E83F00103DBB287
:104B2000002BE1D1FB7E002B02D00F23FB6113E0B1
:104B3000FB681B680C211846FFF7C0FC00BFFB6830
:104B40001B684FF4AC711846FFF7C8FB034683F0AF
:104B50000103DBB2002BF2D17B6900225A61FB69B1
:104B600018462037BD4680BDE046002080B483B0A3
:104B700000AF78607B681B791946094A0B46DB0059
:104B80000B449B00134414331B68002B14BF0123F8
:104B90000023DBB218460C37BD465DF8047B704736
:104BA000E046002080B588B000AFF860B9607A6058
:104BB00001233B74BB68BB617B687B61FB685B68FE
:104BC000FA68116807F110021046984700BF2037B5
:104BD000BD4680BD80B586B000AF786039600023E7
:104BE0003B723B683B617B689B68FB607B68002293
:104BF0005A617B685B687A68116807F108021046A1
:104C0000984700BF1837BD4680BD80B588B000AF5B
:104C1000786039604FF492717868FFF75FFB034664
:104C2000002B22D04FF492717868FFF740FB0223EB
:104C30003B727868FFF799FB03467B617868FFF762
:104C400094FC03463B613B68DB68FB603B680022E9
:104C50009A613B680022DA613B685B683A681168D8
:104C600007F10802104698473BE04FF488717868D6
:104C7000FFF734FB0346002B33D04FF4887178687C
:104C8000FFF715FB7868FFF770FCF8613B689B69DC
:104C9000FA699A4225D13B68DB69002B17D03B6843
:104CA000DB68BB6120217868FFF72DFB3B68DA6980
:104CB0003B689A613B681A693B68DA603B6800228E
:104CC000DA61BA69F9693868FFF76CFF09E03B6897
:104CD00000229A613B68DB681A46F9693868FFF779
:104CE00061FF4FF4A2717868FFF7F8FA0346002BD2
:104CF00018D04FF4A2717868FFF7D9FA3B689B6926
:104D0000002B0FD03B6800229A613B680022DA61D9
:104D10007868FFF72AFC01463B68DB681A4638686A
:104D2000FFF740FF4FF490717868FFF7D7FA03461A
:104D3000002B14D04FF490717868FFF7B8FA0C216B
:104D40007868FFF7BBFB3B685B69002B07D078688E
:104D5000FFF7FEFB034619463868FFF73BFF4FF4A9
:104D6000AC717868FFF7BAFA0346002B10D04FF405
:104D7000AC717868FFF79BFA3B685B69002B07D042
:104D80007868FFF7E5FB034619463868FFF722FF0E
:104D900000BF2037BD4680BD80B500AF0249034843
:104DA000FFF733FF00BF80BDE04600200020004039
:104DB00080B584B000AF78607B68002B0AD0074BC9
:104DC00043F00103FB607B689B01BB60FB68B86834
:104DD000984700E000BF1037BD4680BD80560000F8
:104DE00080B582B000AF78607B68002B0AD04FF4AA
:104DF0007A70FFF7DDFF7B68013B7B607B68002BEF
:104E0000F5D100E000BF0837BD4680BD80B483B057
:104E100000AF78607B681B681F2B02D84FF0A0435F
:104E200006E07B681B6803F01F027B681A60034B77
:104E300018460C37BD465DF8047B704700030050F0
:104E400080B584B000AF7860084611461A46034624
:104E5000FB700B46BB7013467B703B1D1846FFF77B
:104E6000D5FFF860FA78BB785B001A437B789B002B
:104E70001A433B7E1B0242EA03013B7F1B047A6814
:104E80001943FB6802F5E07243F8221000BF1037A7
:104E9000BD4680BD80B584B002AF78600023019329
:104EA000002300930023012201217868FFF7C8FF47
:104EB00000BF0837BD4680BD80B584B000AF7860C4
:104EC0003B1D1846FFF7A2FFF8607B68012202FA3B
:104ED00003F31946F86800F019F800BF1037BD4613
:104EE00080BD80B584B000AF78603B1D1846FFF7E9
:104EF0008DFFF8607B68012202FA03F31946F86817
:104F000000F013F800BF1037BD4680BD80B483B0F9
:104F100000AF786039607B683A68C3F8082500BF45
:104F20000C37BD465DF8047B704780B483B000AF9A
:104F3000786039607B683A68C3F80C2500BF0C378D
:104F4000BD465DF8047B704780B582B000AFFBF7CB
:104F500017FA78607B683B603B68002B02D03868AA
:104F6000FCF798FD0020FBF773FA00BF0837BD4639
:104F700080BD80B582B000AF0023FB71FFF7E4FF76
:104F80000820FFF787FF2920FFF784FF0C20FFF799
:104F900081FF0820FFF790FF2920FFF78DFF0C20ED
:104FA000FFF78AFFFB7903F00103002B07D00820ED
:104FB000FFF797FFFB7923F00103FB7106E0082060
:104FC000FFF77AFFFB7943F00103FB714FF47A702E
:104FD000FFF706FFE6E70000002301461A461846E1
:104FE00000F0BCB908B5074B044613B1002100F02E
:104FF00005FA054B1868836A03B19847204600F00C
:105000004BFA00BFFD5300008C57000038B50A4C26
:105010000A4D641BA4100AD004F18043013B05EB48
:105020008305013C55F804399847002CF9D1BDE8B7
:10503000384000F039BA00BFBC400020B840002022
:1050400070B50D4E0D4D761BB61006D00024013400
:1050500055F8043B9847A642F9D1094E094D761BF5
:1050600000F01CFAB61006D00024013455F8043BB9
:105070009847A642F9D170BDB4400020B44000204A
:10508000B8400020B4400020844641EA000313F0F9
:1050900003036DD1403A41D351F8043B40F8043B3F
:1050A00051F8043B40F8043B51F8043B40F8043B02
:1050B00051F8043B40F8043B51F8043B40F8043BF2
:1050C00051F8043B40F8043B51F8043B40F8043BE2
:1050D00051F8043B40F8043B51F8043B40F8043BD2
:1050E00051F8043B40F8043B51F8043B40F8043BC2
:1050F00051F8043B40F8043B51F8043B40F8043BB2
:1051000051F8043B40F8043B51F8043B40F8043BA1
:1051100051F8043B40F8043B403ABDD2303211D341
:1051200051F8043B40F8043B51F8043B40F8043B81
:1051300051F8043B40F8043B51F8043B40F8043B71
:10514000103AEDD20C3205D351F8043B40F8043B41
:10515000043AF9D2043208D0D2071CBF11F8013B3F
:1051600000F8013B01D30B8803806046704700BF05
:10517000082A13D38B078DD010F003038AD0C3F114
:105180000403D21ADB071CBF11F8013B00F8013BF6
:1051900080D331F8023B20F8023B7BE7043AD9D3B5
:1051A000013A11F8013B00F8013BF9D20B7803708A
:1051B0004B7843708B78837060467047F0B48607F5
:1051C00046D0541E002A3CD0CAB2034602E014F175
:1051D000FF3436D303F8012B9D07F8D1032C29D9CE
:1051E000CDB245EA05250F2C45EA054533D9A4F192
:1051F0001006360903F1200707EB061703F110022A
:1052000042E9045542E902551032BA42F8D1721C03
:1052100014F00C0F03EB021204F00F0613D0331F2F
:1052200023F003030433134442F8045B9342FBD19D
:1052300006F003042CB1C9B21C4403F8011B9C42C4
:10524000FBD1F0BC704734461346002CF3D1F8E78D
:1052500014460346C2E71A462646E0E7000000006F
:10526000000000000000000000000000000000003E
:10527000000000000000000000000000000000002E
:1052800090F800F06DE9024520F007016FF0000C86
:1052900010F0070491F820F040F049804FF000042E
:1052A0006FF00700D1E9002391F840F000F1080009
:1052B00082FA4CF2A4FA8CF283FA4CF3A2FA8CF341
:1052C0004BBBD1E9022382FA4CF200F10800A4FAA8
:1052D0008CF283FA4CF3A2FA8CF3E3B9D1E90423FC
:1052E00082FA4CF200F10800A4FA8CF283FA4CF333
:1052F000A2FA8CF37BB9D1E9062301F1200182FAED
:105300004CF200F10800A4FA8CF283FA4CF3A2FAF2
:105310008CF3002BC6D0002A04BF04301A4612BA00
:10532000B2FA82F2FDE8024500EBD2007047D1E903
:10533000002304F00305C4F100004FEAC50514F092
:10534000040F91F840F00CFA05F562EA05021CBF63
:1053500063EA050362464FF00004A9E72DE9F8432C
:10536000224C25680DB36C681F2C3BDC9846914697
:105370000F46064688B1D5F8880028B3D0F800312A
:1053800040F824900122A24000EB84011343022E36
:10539000C0F80031C1F8808010D0A31C01346C60CB
:1053A00045F823700020BDE8F883114E114D2560AB
:1053B000002ED8D03468C5F88840D4E7D0F804313E
:1053C0001A43C0F80421E8E70B4B5BB14FF484703B
:1053D000AFF3008030B100236C68C0E94033C5F8FA
:1053E0008800CDE74FF0FF30DDE700BF9047002099
:1053F0000000000004470020000000002DE9F04FED
:10540000DFF8908083B0D8F8005001900F464FF03D
:10541000010A8DB16C68D5F88860013C0CD405F1A7
:10542000080B67B12EB106F1800353F82430BB425C
:1054300005D014F1FF34F4D203B0BDE8F08F6B68EF
:105440005BF82420013BA34216BF00236C604BF89D
:105450002430002AEDD0D5F80490B6B1D6F800116A
:105460000AFA04F30B4210D0D6F8040156F82410BF
:1054700003420CD1019890476B68D8F800204B4547
:1054800001D1AA42D5D01546C3E79047F4E70846B4
:105490009047F1E790470020FEE700BFF8B500BF56
:1054A000F8BC08BC9E467047F8B500BFF8BC08BC05
:1054B0009E467047636C6F636B000000434C4F4324
:1054C0004B0000006170705F74696D6572000000D0
:1054D000010006007077725F6D676D740000000058
:1054E00000000050000300504750494F5445000051
:1054F000505253006E72665F736468003338333104
:105500002D353231642D376466392D323464382DAF
:10551000656666332D343637622D323235662D613D
:105520003030650001000007A4570000A4570000B8
:1055300008000000466174616C206572726F720031
:1055400053797374656D2072657365740000000093
:10555000FFFFFFFFFFFFFFFFFFFFFFFFFFFFFFFF5B
:1055600000000000000000000000D601060100005D
:10557000511E0000911E00007D1E000075617274B6
:105580005F6C6F675F6261636B656E640000000053
:10559000617070004261636B656E647320666C7548
:1055A00073686564000000006572726F720000002D
:1055B0007761726E696E6700696E666F0000000049
:1055C00064656275670000001B5B306D00000000C1
:1055D0001B5B313B33306D001B5B313B33316D0066
:1055E0001B5B313B33326D001B5B313B33336D0052
:1055F0001B5B313B33346D001B5B313B33356D003E
:105600001B5B313B33366D001B5B313B33376D0029
:1056100025734C6F67732064726F70706564202807
:1056200025642925730D0A00257300003C25733E6F
:105630002025733A200000000D0A0000202530329A
:1056400078000000202020007C000000256300007E
:10565000200000003031323334353637383941429A
:105660004344454655415254000000003D4100006E
:105670005541525445000000994D000000000000C3
:105680000338FDD870470000002020202020202073
:1056900020202828282828202020202020202020E2
:1056A00020202020202020202088101010101010F2
:1056B000101010101010101010040404040404043E
:1056C00004040410101010101010414141414141D8
:1056D00001010101010101010101010101010101BA
:1056E00001010101101010101010424242424242CA
:1056F000020202020202020202020202020202028A
:105700000202020210101010200000000000000031
:105710000000000000000000000000000000000089
:105720000000000000000000000000000000000079
:105730000000000000000000000000000000000069
:105740000000000000000000000000000000000059
:105750000000000000000000000000000000000049
:105760000000000000000000000000000000000039
:105770000000000000000000000000000000000029
:105780000000000000000000000000005440002065
:045790000000000015
:085794009D050000000000006B
:08579C00C5050000000000003B
:1057A400BC54000000000000E854000000000000A9
:1057B400F0540000000000006456000000000000E7
:1057C4007056000000000000905500000000030324
:1057D400C454000000000000B454000000000000A5
:1057E400F454000000000303D4540000000000003F
:1057F40070550000000000007C550000104000209F
:1058040088420020C0410020C8410020C841002037
:045814001800000078
:0858180070AAFF7F01000000EF
:105820000090D003000000000020004000000000B5
:10583000002000400000000000000000FF00000009
:1058400000000000A8550000B0550000B855000049
:10585000C0550000C8550000D0550000D8550000C4
:10586000E0550000E8550000F0550000F855000034
:1058700000560000085600005440002000000000C0
:105880000000000000000000000000000000000018
:105890000000000000000000000000000000000008
:1058A00000000000000000000000000000000000F8
:1058B00000000000000000000000000000000000E8
:1058C00000000000000000000000000000000000D8
:1058D000000000000000000000000000690200005D
:0458E0004102000081
:04000003000002F9FE
:00000001FF
